:020000040800F2
:10000000FCFF002041050000F5030000F50300009F
:10001000F5030000F5030000F5030000F503000000
:10002000F5030000F5030000F5030000F5030000F0
:10003000F5030000F5030000F5030000F5030000E0
:10004000F5030000F5030000F5030000F5030000D0
:10005000F5030000F5030000F5030000F5030000C0
:10006000F5030000F5030000F5030000F5030000B0
:10007000F5030000F5030000F5030000F5030000A0
:10008000F5030000F5030000F5030000F503000090
:10009000F5030000F5030000F5030000F503000080
:1000A000F5030000F5030000F5030000F503000070
:1000B000F5030000F5030000F5030000F503000060
:1000C000F5030000F5030000F5030000F503000050
:1000D000F5030000F5030000F5030000F503000040
:1000E000F5030000F5030000F5030000F503000030
:1000F000F5030000F5030000F5030000F503000020
:10010000F5030000F5030000F5030000F50300000F
:10011000F5030000F5030000F5030000F5030000FF
:10012000F5030000F5030000F5030000F5030000EF
:10013000F5030000F5030000F5030000F5030000DF
:10014000F5030000F5030000F5030000F5030000CF
:1001500081B0CDF800E0C2B2D0B200F029F968B9A0
:10016000D0B200F0CFF848B9D0B200F0BFF828B94B
:10017000D0B200F037F808B9002100E00121C8B280
:10018000DDF800E001B0704781B0CDF800E0C2B208
:10019000662A03D8612A01D3012100E00021C8B2F8
:1001A000462A03D8412A01D3012100E0002140EA78
:1001B0000101CBB2D0B200F0FBF843EA0001C8B2B3
:1001C000DDF800E001B0704781B0202806D00D288E
:1001D00002D8092800D301E0002100E00121C8B2C3
:1001E00001B0704781B0212803D32F2801D8012105
:1001F00000E00021CAB23A2803D3402801D80121E7
:1002000000E000210A43D2B25B2803D3602801D862
:10021000012100E000210A43D2B27B2803D37E28CB
:1002200001D8012100E0002142EA0101C9B2C8B2AF
:1002300001B0704781B01CF8019B0BF8019BBBEB30
:100240000A0FF8D101B0704781B01548006840F03E
:100250000101134801601349134801601048016807
:10026000124801400E4801600D4801686FF480207B
:1002700001400B4801600C4801686FF4FE0001402A
:1002800009480160064801686FF0A0500140044829
:1002900001604FF000010648016001B0704700BFE7
:1002A000001002400000FFF004100240FFFFF6FEC5
:1002B0002C10024081B05A2805D8412804D340F0C0
:1002C0002000C0B2FFE7FFE701B0704781B07A2895
:1002D00008D8612807D34FF6DF7109B200EA01019F
:1002E000C8B2FFE7FFE701B07047FFFF81B05A28AF
:1002F00003D8412801D3012100E00021C8B201B098
:100300007047FFFF81B07A2803D8612801D301210B
:1003100000E00021C8B201B07047FFFF81B04FF08C
:1003200000094FF0000CBDEB0A0F04DCBDEB0B0F16
:1003300001DBD446EA464BF8049BBBEB0A0FFAD12B
:10034000BCEB0A0F05DDE246D9F800B00BF1040B57
:10035000F1E701B07047FFFF81B0CDF800E0C2B215
:10036000D0B2FFF7CFFF28B9D0B2FFF7BFFF08B96F
:10037000002100E00121C8B2DDF800E001B07047C3
:1003800081B0CDF800E0C2B2D0B200F011F848B9A7
:10039000D0B2FFF7B7FF28B9D0B2FFF7A7FF08B96F
:1003A000002100E00121C8B2DDF800E001B0704793
:1003B00081B0392803D8302801D3012100E0002181
:1003C000C8B201B07047FFFF81B01F2803D97F2852
:1003D00001D0002100E00121C8B201B07047FFFF49
:1003E00081B002490248016001B070474019010024
:1003F0000400002081B0FEE701B0704781B0CDF865
:1004000000E0464A464B474C47494BF68030814214
:1004100006D94648006840F002014448016011E0F6
:1004200045F6C050814206D94048006840F00101BD
:100430003E48016006E03D4801686FF0070001405A
:100440003A480160FFF700FF39480360394804600B
:10045000394802EA00013948016002F0010040B168
:1004600019463648006800F00200002800D1F8E77D
:1004700000E0194602F4803040B10B462F48006876
:1004800000F40030002800D1F8E700E00B4602F04D
:10049000805068B12948006840F0805127480160C9
:1004A0002648006800F00050002800D1F8E7FFE778
:1004B00002F0806078B12148006840F080611F48F8
:1004C000016011461A461D48006800F000600028CF
:1004D00000D1F8E701E011461A4601F0807070B1D2
:1004E0001648006840F080711448016011461348B6
:1004F000006800F0007000B9F9E70A46FFE70C4811
:10050000006800F00C01900000F00C00814200D067
:10051000F5E7DDF800E001B0704700BF810001059C
:1005200002041D00440601004019010000200240A1
:10053000041002402C100240FFFF0F000010024088
:10054000FFF75CFF00F0C4F8FFF74AFF6F20FFF7EA
:10055000D9FE5E4908704120FFF7D4FE5B49087060
:100560003120FFF7CFFE594908706F20FFF7BEFE1C
:10057000564908704120FFF7B9FE544908703120F0
:10058000FFF7B4FE514908706F20FFF7E5FE4F49B1
:1005900008704120FFF7E0FE4C4908703120FFF75A
:1005A000DBFE4A4908706F20FFF70EFF47490870CD
:1005B0000D20FFF709FF454908703120FFF704FFC0
:1005C000424908706F20FFF7F3FE404908700D2084
:1005D000FFF7EEFE3D4908703120FFF7E9FE3B4989
:1005E00008706F20FFF7CCFE384908700D20FFF728
:1005F000C7FE364908703120FFF7C2FE3349087044
:100600006F20FFF7E1FD314908702020FFF7DCFD86
:100610002E4908700920FFF7D7FD2C4908706F207C
:10062000FFF7E0FD294908702C20FFF7DBFD274983
:1006300008702E20FFF7D6FD244908703120FFF7FF
:10064000D1FD224908703A20FFF7CCFD1F49087000
:100650006F20FFF77DFD1D4908702020FFF778FD12
:100660001A4908700920FFF773FD184908706F20B8
:10067000FFF78AFD154908706120FFF785FD1349D2
:1006800008704220FFF780FD104908706F20FFF7C7
:1006900011FE0E4908706120FFF70CFE0B4908702F
:1006A0004220FFF707FE094908706F20FFF70EFE92
:1006B000064908706120FFF709FE044908704220CE
:1006C000FFF704FE01490870FEE700BF00000020AC
:1006D00000B5DFF810B0DFF810A0FFF71FFE00BD77
:1006E000704700BF0000002008000020FFFFFFFF50
:00000001FF
