:020000040800F2
:10000000FCFF0020E10600009505000095050000BA
:100010009505000095050000950500009505000078
:100020009505000095050000950500009505000068
:100030009505000095050000950500009505000058
:100040009505000095050000950500009505000048
:100050009505000095050000950500009505000038
:100060009505000095050000950500009505000028
:100070009505000095050000950500009505000018
:100080009505000095050000950500009505000008
:1000900095050000950500009505000095050000F8
:1000A00095050000950500009505000095050000E8
:1000B00095050000950500009505000095050000D8
:1000C00095050000950500009505000095050000C8
:1000D00095050000950500009505000095050000B8
:1000E00095050000950500009505000095050000A8
:1000F0009505000095050000950500009505000098
:100100009505000095050000950500009505000087
:100110009505000095050000950500009505000077
:100120009505000095050000950500009505000067
:100130009505000095050000950500009505000057
:100140009505000095050000950500009505000047
:1001500081B0064614B20A466CB1611E09B235463A
:10016000761C1446521C23782B702B780BB9324620
:1001700003E00CB2F0E7324621B20CB24B1E19B2CA
:100180001CB100231370521CF7E701B07047FFFF4A
:1001900081B0CDF800E000252DB206460C4632783D
:1001A0004AB13278D1B2204600F06EF918B1761C0F
:1001B0006D1C2DB2F3E728B2DDF800E001B0704706
:1001C00081B004460E4611B223780BB1641CFBE7E4
:1001D00059B12546621C3446761C23782B702B7847
:1001E0002BB1491E09B21446F2E72246FFE709B9CE
:1001F0000023137001B0704781B000910146009850
:100200000B461C465A1C15460346421C10461A78DB
:10021000227022780AB12B46F3E7084601B07047F6
:1002200081B0014608460B460246401C117801B1D8
:10023000FAE7C11A491E08B201B0704781B0CDF883
:1002400000E0002506460C4632784AB13278D1B239
:10025000204600F019F918B9761C6D1CEDB2F3E7D1
:10026000E8B2DDF800E001B07047FFFF81B0CDF8E3
:1002700000E006460D46AEB132789AB12846FFF747
:10028000CFFFC2B22946304600F062F808B93046C6
:1002900009E02A78D3B2721CD9B2104600F0F4F803
:1002A0000646E8E70020DDF800E001B07047FFFFF8
:1002B00081B01548006840F00101134801601349FE
:1002C0001348016010480168124801400E4801605F
:1002D0000D4801686FF4802001400B4801600C4814
:1002E00001686FF4FE00014009480160064801689A
:1002F0006FF0A0500140044801604FF00001064833
:10030000016001B0704700BF001002400000FFF024
:1003100004100240FFFFF6FE2C10024081B0CDF821
:1003200000E00446CDB22046FFF77AFF2118E8B27C
:10033000FFE70A78824201D1084604E00B46491ED5
:10034000A342F6D10020DDF800E001B07047FFFFC6
:1003500081B08DF8002002469DF80000C4B2431E13
:10036000D8B274B1137823B10C781378A34200D1BA
:1003700004E014780B78E31A18B204E0521C491C0C
:10038000ECE7002000B201B07047FFFF81B0CDF86C
:1003900000E005460C462A784AB12A78D1B22046B8
:1003A00000F072F808B1284602E06D1CF3E7002067
:1003B000DDF800E001B0704781B0ADF800200246E2
:1003C000BDF9000004B2431E18B25CB114780B787A
:1003D0009C4204D014780B78E31A18B204E0521C43
:1003E000491CEFE7002000B201B0704781B00B4616
:1003F000014618460D4614B2531E1AB224B10378B2
:100400002B706D1C401CF6E7084601B07047FFFFDB
:1004100081B093B20246C8B299B28CB24B1E99B267
:1004200034B11378834201D1104602E0521CF4E744
:10043000002001B07047FFFF81B01CF8019B0BF852
:10044000019BBBEB0A0FF8D101B0704781B04FF0B0
:1004500000094FF0000CBDEB0A0F04DCBDEB0B0FE5
:1004600001DBD446EA464BF8049BBBEB0A0FFAD1FA
:10047000BCEB0A0F05DDE246D9F800B00BF1040B26
:10048000F1E701B07047FFFF81B08DF80010014621
:100490009DF80000FFE70A78824201D1084605E096
:1004A0000B46491C1A78002AF5D1002001B070478C
:1004B00081B00091014600980A7832B10B78027839
:1004C000934202D1491C401CF6E70B7802789A1A35
:1004D00010B201B07047FFFF81B003461A780AB12D
:1004E0005B1CFBE71C465A1C15460B464A1C114672
:1004F0001A78227022780AB12B46F3E701B07047D0
:1005000081B00C4601462546844215D2AB188B4279
:1005100012D9AD188B1819460B4611B200E01346DC
:100520005C1E22466B1E1D461B7823704B1E1BB2A1
:1005300019B2002BF3D110E07AB12C460D4611B25E
:10054000FFE723782B706B1C1D46631C1C464B1E5B
:100550001BB219B2002BF4D1FFE701B07047FFFFC7
:1005600081B013B20246C8B211461DB22CB26B1E46
:100570001DB214B10870491CF8E7104601B070476D
:1005800081B002490248016001B070474019010082
:100590003000002081B0FEE701B0704781B0CDF897
:1005A00000E0464A464B474C47494BF68030814273
:1005B00006D94648006840F002014448016011E055
:1005C00045F6C050814206D94048006840F001011C
:1005D0003E48016006E03D4801686FF007000140B9
:1005E0003A480160FFF764FE394803603948046007
:1005F000394802EA00013948016002F0010040B1C7
:1006000019463648006800F00200002800D1F8E7DB
:1006100000E0194602F4803040B10B462F480068D4
:1006200000F40030002800D1F8E700E00B4602F0AB
:10063000805068B12948006840F080512748016027
:100640002648006800F00050002800D1F8E7FFE7D6
:1006500002F0806078B12148006840F080611F4856
:10066000016011461A461D48006800F0006000282D
:1006700000D1F8E701E011461A4601F0807070B130
:100680001648006840F08071144801601146134814
:10069000006800F0007000B9F9E70A46FFE70C486F
:1006A000006800F00C01900000F00C00814200D0C6
:1006B000F5E7DDF800E001B0704700BF81000105FB
:1006C00002041D0044060100401901000020024000
:1006D000041002402C100240FFFF0F0000100240E7
:1006E00083B0FFF75BFF00F057F9FFF749FF00F019
:1006F00013F9102265216D48FFF78AFE6C490860E6
:10070000052265216948FFF783FE694908601022C8
:1007100012B268496548FFF74FFE67490880042216
:1007200012B264496148FFF747FE6349088004221A
:1007300012B260496148FFF759FE5D490860022224
:1007400012B25C495E48FFF751FE59490860042225
:1007500012B258495B48FFF7D3FE554908600222A0
:1007600012B254495848FFF7CBFE514908600222A3
:1007700012B261215548FFF7F3FE00215448029060
:100780000170544801464B48FFF7A6FE74214948C2
:10079000FFF77AFE4649086046494448FFF788FE5D
:1007A0004549088043494148FFF726FD4049086014
:1007B0003E48FFF735FD404908800021464801903A
:1007C00001700021454800900170082212B2394999
:1007D0003648FFF7F5FC36490860002101980170A2
:1007E000022212B233493148FFF7EAFC304908606F
:1007F000002100980170082212B22E492B48FFF701
:10080000A7FC2B4908602B492848FFF7C1FC2A495F
:10081000088026492748FFF711FD274908803048FE
:1008200001462448FFF70AFD234908802D48014668
:100830002048FFF703FD2049088072211F480170FE
:1008400003221A491B48FFF783FD1B490880062233
:1008500016491848FFF77CFD1749088013491548C9
:10086000FFF794FD124908606B2102980170702116
:100870001048FFF753FD0E4908606B210D48FFF744
:100880004DFD0B4908600021029801700949074895
:10089000FFF7ECFC0649086050211348017003493A
:1008A0000448FFF7E3FC02490860FEE7000000206F
:1008B0002C000020110000202A000020040000204D
:1008C0000A000020050000200B0000201600002078
:1008D000140000201B000020030000201500002051
:1008E0002100002025000020020000206D696B72AD
:1008F0006F456C656B74726F6E696B61006D696BCF
:10090000720000000000005F746573740064786317
:100910000064786B00FFFFFF00B5DFF814B0DFF86C
:1009200014A0DFF814C0FFF787FD00BD704700BFBB
:100930000000002029000020EC080000FFFFFFFF5E
:10094000FFFFFFFFFFFFFFFFFFFFFFFFFFFFFFFFB7
:10095000FFFFFFFFFFFFFFFFFFFFFFFFFFFFFFFFA7
:10096000FFFFFFFFFFFFFFFFFFFFFFFFFFFFFFFF97
:10097000FFFFFFFFFFFFFFFFFFFFFFFFFFFFFFFF87
:10098000FFFFFFFFFFFFFFFFFFFFFFFFFFFFFFFF77
:10099000FFFFFFFFFFFFFFFF00B5DFF810B0DFF83C
:1009A00010A0FFF753FD00BD704700BF00000020FE
:1009B00034000020FFFFFFFFFFFFFFFFFFFFFFFFEF
:00000001FF
