:020000040800F2
:10000000FCFF0020D10800008507000085070000E4
:1000100085070000850700008507000085070000B0
:1000200085070000850700008507000085070000A0
:100030008507000085070000850700008507000090
:100040008507000085070000850700008507000080
:100050008507000085070000850700008507000070
:100060008507000085070000850700008507000060
:100070008507000085070000850700008507000050
:100080008507000085070000850700008507000040
:100090008507000085070000850700008507000030
:1000A0008507000085070000850700008507000020
:1000B0008507000085070000850700008507000010
:1000C0008507000085070000850700008507000000
:1000D00085070000850700008507000085070000F0
:1000E00085070000850700008507000085070000E0
:1000F00085070000850700008507000085070000D0
:1001000085070000850700008507000085070000BF
:1001100085070000850700008507000085070000AF
:10012000850700008507000085070000850700009F
:10013000850700008507000085070000850700008F
:10014000850700008507000085070000850700007F
:1001500081B0194900EA0101084600220EE004209E
:1001600022E0082020E010201EE020201CE040209B
:100170001AE0802018E040F2001015E00F49884294
:10018000EDD00F498842ECD00E498842EBD00E49A1
:100190008842EAD00D498842E9D00D498842E8D02A
:1001A0000C498842E7D010460B49096841EA000231
:1001B00009490A6001B0704700FCFFFF00080140D8
:1001C000000C0140001001400014014000180140E3
:1001D000001C014000200140181002400148006846
:1001E000704700BF0000002081B0CDF800E0322150
:1001F00040F2164000F028FADDF800E001B0704748
:1002000041F25777C0F200077F1EFDD100BF00BF4B
:1002100000BF00BF00BF704781B0CDF800E03221C1
:1002200040F2703000F010FADDF800E001B07047E5
:1002300000BFAFF30080401E401E00BF00BF00BFE4
:1002400000BF00BFF8D1704781B0CDF800E0044A8C
:1002500089B200F007F8DDF800E001B0704700BF98
:100260001400080081B0CDF800E08CB21546774B41
:1002700000EA03031E461846FFF76AFFB4F1FF0FBA
:100280000CD1734B9D4203D14FF033333360D9E02F
:10029000422D03D14FF044333360D3E04FF6FF7368
:1002A0009C4214D16A4B9D4207D14FF033333360E7
:1002B000341D4FF033332360C4E0422D07D14FF09B
:1002C00044333360341D4FF044332360BAE00021DF
:1002D000002005F001030BB100211DE005F0020331
:1002E00033B105F4C0730BB1082100E0042113E021
:1002F00005F0040333B105F020030BB1042100E045
:10030000002109E005F0080333B105F020030BB12B
:100310000C2100E00821FFE74E4B05EA03030BB177
:10032000032009E005F400730BB1022004E005F49A
:1003300080630BB10120FFE705F00C030BB1014313
:10034000FFE704F0FF039BB2002B3BD0376800208F
:100350001FFA84F832462E4608282CD24FF00103AB
:1003600003FA00F408EA0403A34222D185004FF007
:100370000F03AB40DB4307EA030401FA05F344EA49
:1003800003031D4606F48173B3F5817F05D102F2A4
:1003900014044FF001038340236006F08203822B94
:1003A00005D102F210044FF00103834023602F4671
:1003B000FFE7401CD0E717601FFA88F00F46314670
:1003C000164602E00F462946A0B2B0F1FF0F39D918
:1003D000331DD3F800800022082A30D202F208042C
:1003E0004FF0010303FA04F400EA0403A34224D10A
:1003F00095004FF00F03AB40DB4308EA030807FA10
:1004000005F348EA030801F48173B3F5817F07D14E
:1004100006F2140502F208044FF00103A3402B601A
:1004200001F08203822B07D106F2100502F20804C4
:100430004FF00103A3402B60FFE7521CCCE7331DB4
:10044000C3F80080DDF800E001B0704700FCFFFF5A
:10045000140008000008080081B0CDF800E0322147
:1004600040F2265000F0F0F8DDF800E001B07047EF
:1004700081B0CDF800E00926002E08D9FFF7CCFEA8
:10048000FFF7B2FEFFF7E8FF761EF6B2F4E7DDF8FD
:1004900000E001B07047FFFF81B0CDF800E0FA2125
:1004A00040F2103000F0D0F8DDF800E001B0704705
:1004B00081B01548006840F00101134801601349FC
:1004C0001348016010480168124801400E4801605D
:1004D0000D4801686FF4802001400B4801600C4812
:1004E00001686FF4FE000140094801600648016898
:1004F0006FF0A0500140044801604FF00001064831
:10050000016001B0704700BF001002400000FFF022
:1005100004100240FFFFF6FE2C10024081B0CDF81F
:1005200000E000F0E3F800F0D5F8FFF7B5FFFFF7C3
:10053000B3FF00F0DBF800F0CDF8FFF7ADFFFFF7F9
:10054000ABFF00F0D3F800F0C5F8FFF7A5FF00F00F
:10055000CDF800F0BFF8FFF79FFFFFF79DFF00F019
:10056000C5F800F0B7F8FFF797FFFFF795FFFFF723
:1005700093FF00F0AFF800F0ADF800F0B7F8DDF849
:1005800000E001B07047FFFF81B01CF8019B0BF841
:10059000019BBBEB0A0FF8D101B0704781B0CDF8D9
:1005A00000E083468C46012212B202FA0CF212B22B
:1005B00011B25846FFF748FE0B4AC2F800B00122BC
:1005C00012B202FA0CF31BB2084A13601268D3434A
:1005D000074A1360DBF800201A40CBF80020DDF852
:1005E00000E001B0704700BF0400002008000020B8
:1005F0000C00002081B0CDF800E04FF0420289B23B
:10060000FFF730FEDDF800E001B0704781B04FF039
:1006100000094FF0000CBDEB0A0F04DCBDEB0B0F23
:1006200001DBD446EA464BF8049BBBEB0A0FFAD138
:10063000BCEB0A0F05DDE246D9F800B00BF1040B64
:10064000F1E701B07047FFFF81B0CDF800E08CB258
:1006500081B2FFF7C3FD40F2E8324243B2FBF1F151
:100660004908FFF7BBFD04FB00F54A00B5FBF2F5B6
:100670000A22B1FBF2F1002D19D9134C226813683C
:10068000124A126813432246126813600846FFF7A5
:10069000CFFD0D4C226813680D4A126813402246A4
:1006A000126813600846FFF7C3FD6D1EE3E7064CB2
:1006B00022681368064A12681340224612681360C3
:1006C000DDF800E001B070470400002008000020C1
:1006D0000C00002081B0CDF800E0FA2140F2BA20F1
:1006E000FFF7B2FFDDF800E001B0704781B0CDF850
:1006F00000E0FA2140F29320FFF7A6FFDDF800E0CA
:1007000001B0704782B0CDF800E00D4611464FF0C1
:100710000002012424B2AC4024B225B204682C406B
:10072000002C40F2000400D10124E4B25C40C4B1CA
:1007300001950D460199002D05D9FFF761FDFFF7E1
:100740005FFD6D1EF7E704680C40002C40F20004CA
:1007500000D10124E4B25C400CB1FF2000E010465F
:1007600000E0104680B2DDF800E002B07047FFFF05
:1007700081B002490248016001B070474019010090
:100780000000002081B0FEE701B0704781B0CDF8D5
:1007900000E0464A464B474C47494BF68030814281
:1007A00006D94648006840F002014448016011E063
:1007B00045F6C050814206D94048006840F001012A
:1007C0003E48016006E03D4801686FF007000140C7
:1007D0003A480160FFF76CFE39480360394804600D
:1007E000394802EA00013948016002F0010040B1D5
:1007F00019463648006800F00200002800D1F8E7EA
:1008000000E0194602F4803040B10B462F480068E2
:1008100000F40030002800D1F8E700E00B4602F0B9
:10082000805068B12948006840F080512748016035
:100830002648006800F00050002800D1F8E7FFE7E4
:1008400002F0806078B12148006840F080611F4864
:10085000016011461A461D48006800F0006000283B
:1008600000D1F8E701E011461A4601F0807070B13E
:100870001648006840F08071144801601146134822
:10088000006800F0007000B9F9E70A46FFE70C487D
:10089000006800F00C01900000F00C00814200D0D4
:1008A000F5E7DDF800E001B0704700BF8100010509
:1008B00002841D004406010040190100002002408E
:1008C000041002402C100240FFFF0F0000100240F5
:1008D000FFF75CFF00F064F8FFF74AFF40F2FF010A
:1008E0002848FFF787FE0E212748FFF757FE40F202
:1008F000E83140F27030FFF7A7FE01230122072103
:100900002048FFF7FFFE08B1FFF7F0FE1F49086817
:1009100000B1FBE70123012206211A48FFF7F2FE8E
:1009200008B1FFF7D7FE1A49086800B1FBE70123B9
:10093000012205211348FFF7E5FE08B1FFF7ACFDE2
:100940001449086800B1FBE70123012204210D4886
:10095000FFF7D8FE08B1FFF78BFD0F49086800B11B
:10096000FBE70123012203210648FFF7CBFE08B174
:10097000FFF7D4FD09490868002800D0FAE7BCE772
:10098000FEE700BF081401400C1801401C81224200
:100990001881224214812242108122420C8122427B
:1009A00000B5DFF810B0DFF810A0FFF72FFE00BD94
:1009B000704700BF0000002010000020FFFFFFFF75
:00000001FF
