:020000040800F2
:10000000FCFF00203D0B0000F1090000F109000099
:10001000F1090000F1090000F1090000F1090000F8
:10002000F1090000F1090000F1090000F1090000E8
:10003000F1090000F1090000F1090000F1090000D8
:10004000F1090000F1090000F1090000F1090000C8
:10005000F1090000F1090000F1090000F1090000B8
:10006000F1090000F1090000F1090000F1090000A8
:10007000F1090000F1090000F1090000F109000098
:10008000F1090000F1090000F1090000F109000088
:10009000F1090000F1090000F1090000F109000078
:1000A000F1090000F1090000F1090000F109000068
:1000B000F1090000F1090000F1090000F109000058
:1000C000F1090000F1090000F1090000F109000048
:1000D000F1090000F1090000F1090000F109000038
:1000E000F1090000F1090000F1090000F109000028
:1000F000F1090000F1090000F1090000F109000018
:10010000F1090000F1090000F1090000F109000007
:10011000F1090000F1090000F1090000F1090000F7
:10012000F1090000F1090000F1090000F1090000E7
:10013000F1090000F1090000F1090000F1090000D7
:10014000F1090000F1090000F1090000F1090000C7
:1001500081B0392803D8302801D3012100E00021E3
:10016000C8B201B07047FFFF81B0202806D00D282B
:1001700002D8092800D301E0002100E00121C8B223
:1001800001B0704781B0002808BF19E006B554BF20
:100190000146D0F100014FF09E0202D4521E4900E8
:1001A000FCD580312CBF521C49004FEA512141EA55
:1001B000C25100284CBF41F000400846BDE806404F
:1001C00001B0704781B0FAB590EA02064CBF4FF01B
:1001D00000464FF000064FEA00214FEA40031B0E95
:1001E00012BF41F000414FF000002CE0FF2B26D061
:1001F0004FEA02244FEA42052D0E12BF44F000449C
:100200004FF000001FE0FF2D19D05B19A1FB045433
:10021000002C5CBF64005B1E803424BF5B1C640840
:100220007E3BDCBF4FF000000DE0FF2B07D24FEA12
:10023000142030F4000040EAC350304303E0FF27AD
:10024000FF0546EA0700BDE8FA4001B07047FFFF2E
:1002500081B010B5904208BF2AE040EA02044FEA9C
:100260004404002C08BF23E0440004D1944201D48C
:10027000A41C012C1CE04FEA40044FEA1464FF2C3C
:100280000AD14FEA42044FEA1464FF2C04D14FEA2A
:10029000D274B4EBD0340BE0002A06D4002802DC80
:1002A0000024012C04E0904202E0002848BF824272
:1002B000BDE8104001B0704781B05A2805D84128E8
:1002C00004D340F02000C0B2FFE7FFE701B0704761
:1002D00081B0CDF800E0C2B2662A03D8612A01D30A
:1002E000012100E00021C8B2462A03D8412A01D3E7
:1002F000012100E0002140EA0101CBB2D0B2FFF7BA
:1003000027FF43EA0001C8B2DDF800E001B0704702
:1003100083B0CDF800E001B1086005460C462B78AB
:10032000DBB2D8B2FFF720FF08B16D1CF7E7002061
:100330002D2B03D101206E1C85B206E02B2B02D1A0
:10034000691C0E4600E02E4685B200273FB200220F
:10035000029200231BB205F0100292B242B9327829
:100360002E2A05D145F0100080B2761C85B234E00B
:100370003278D0B2FFF7ECFE00B92FE045F0020270
:1003800090B2082F1AD000F0100292B212B1591E8A
:1003900009B200E019B27A1C15B2029B0A225A4334
:1003A000029200BF00BF3278A2F230031BB2029A61
:1003B000D218029200BF00BF2BB208E000F010027A
:1003C00092B212B9591C09B200E019B23BB2721CC8
:1003D00015462E4685B21FB20BB2BCE7002000B214
:1003E0003278652A06D03278452A03D031461EB2CB
:1003F000ABB260E0721C164612782D2A05D145F08A
:10040000080189B2721C904607E032782B2A01D18C
:10041000711C00E031468846A9B21EB225468CB256
:1004200007B298F80020302A02D108F10108F8E755
:1004300098F80020D0B2FFF78BFE88B398F8002020
:10044000A2F230073FB2FFB208F1010290461278E3
:10045000D0B2FFF77DFE00B30A2212B257433FB27B
:1004600098F80020303AD2B2BF183FB208F101022A
:1004700090461278D0B2FFF76BFE58B10A2212B242
:1004800007FB02F000B298F80020303AD2B2801890
:1004900000B200E038B2414601E038B2414601E026
:1004A000414638B204F0080292B212B1404200B2A2
:1004B000FFE7A3B22C46321815B224B103F00202B2
:1004C00092B202B121600298FFF75CFE0290029A9C
:1004D0004FF00000FFF7BCFE40F2000000D1012009
:1004E00010B14FF0000082E0002D39DAC5F10008AC
:1004F0000FFA88F81FFA83F9B8F10A0F09DB029A9C
:100500003D48FFF75FFE0290A8F10A080FFA88F84D
:10051000F2E7ADF804900FFA88F9BDF80480B9F15C
:10052000000F09D0029A3548FFF74CFE0290A9F15E
:1005300001090FFA89F9F2E7029A3148FFF788FEBC
:1005400040F2000000DD012038B108F0010292B253
:100550000AB12C484BE02A4849E01FFA88F03CE0F9
:10056000002D39DD1FFA83F90FFA85F85FFA88F25A
:100570000A2A09D3029A2448FFF724FE0290A8F120
:100580000A080FFA88F8F1E7ADF804900FFA88F935
:10059000BDF80480B9F1000F09D0029A1B48FFF79B
:1005A00011FE0290A9F101090FFA89F9F2E7029A06
:1005B0001748FFF74DFE40F2000000DA012040B17D
:1005C00008F0010292B212B16FF400000FE010487F
:1005D0000DE01FFA88F000E098B200F0010292B23C
:1005E00022B1029A82F00042104600E00298DDF843
:1005F00000E003B0704700BFFFE6DB2ECDCCCC3D62
:100600000100800001008080F902155000002041A7
:10061000FFFF7F7F81B05A2803D8412801D30121F1
:1006200000E00021C8B201B07047FFFF81B08842EE
:1006300000DB00E0084601B07047FFFF81B00028F2
:1006400002DA41420846FFE701B0704781B08842B4
:1006500001DB0846FFE701B07047FFFF82B0CDF82D
:1006600000E00023002204462178C8B2FFF77CFD99
:1006700008B1641CF8E721782D2905D1591C88B2EE
:10068000611C84B2084606E021782B2901D1601C48
:1006900000E020469CB295B20246411C0E461178FD
:1006A000ADF80410BDF80400FFF712FE10B3BDF85A
:1006B0000400FFF7AFFF28B1BDF80400FFF7FCFD11
:1006C000ADF80400BDF80400FFF742FD28B1BDF805
:1006D00004103039ADF8041004E0BDF804105739A7
:1006E000ADF804102A0192B29DF8041051188DB291
:1006F0003046D1E714B1694208B200E028B2DDF813
:1007000000E002B07047FFFF81B004490860012299
:1007100012B203490A8001B0704700BF8C0000206C
:100720006E00002081B0CDF800E00C48B0F9000068
:1007300010B90120FFF7E8FF094A11680948414351
:1007400043F239000818011447F6FF7001EA00006F
:10075000106000B2DDF800E001B070476E000020CC
:100760008C0000206D4EC64181B01548006840F0F5
:1007700001011348016013491348016010480168E2
:10078000124801400E4801600D4801686FF4802056
:1007900001400B4801600C4801686FF4FE00014005
:1007A00009480160064801686FF0A0500140044804
:1007B00001604FF000010648016001B0704700BFC2
:1007C000001002400000FFF004100240FFFFF6FEA0
:1007D0002C10024081B0002802DA414208B2FFE743
:1007E00001B0704781B0CDF800E00021FFF790FD27
:1007F000DDF800E001B0704781B01CF8019B0BF8F8
:10080000019BBBEB0A0FF8D101B0704781B04FF0EC
:1008100000094FF0000CBDEB0A0F04DCBDEB0B0F21
:1008200001DBD446EA464BF8049BBBEB0A0FFAD136
:10083000BCEB0A0F05DDE246D9F800B00BF1040B62
:10084000F1E701B07047FFFF81B0CDF800E004464A
:100850002178CBB2202B02D0092B00D001E0641C00
:10086000F6E7002000B200222D2B05D1521C92B2D7
:10087000611C93B20D4608E02B2B03D1611C0B4683
:10088000194600E0214693B20D4606B22978CCB253
:10089000E0B2FFF75DFC60B10A2109B206FB01F28C
:1008A00012B2A4F2300109B2511808B26D1C06B29E
:1008B000ECE713B1714208B200E030B2DDF800E0BD
:1008C00001B0704783B00B460146604691FBF3F2DE
:1008D000019291FBF3F203FB121202924FF0080512
:1008E000044601AB1A7822706D1E5B1C641C002D3F
:1008F000F8D103B07047FFFF83B00B460146604656
:10090000B1FBF3F20192B1FBF3F203FB121202927C
:100910004FF00805044601AB1A7822706D1E5B1C6F
:10092000641C002DF8D103B07047FFFF81B0CDF8F3
:1009300000E003461978C8B2202802D0092800D068
:1009400001E05B1CF6E70020002219782D2905D173
:10095000521C92B2591C93B20D4608E019782B290B
:1009600002D15B1C194600E0194693B20D460646BB
:100970002978CCB2E0B2FFF7EBFB50B14FF00A019F
:1009800006FB01F2A4F2300109B251180E466D1CAB
:10099000EEE713B17142084600E03046DDF800E0B2
:1009A00001B0704782B00BB201B2604691FBF3F226
:1009B000ADF8042091FBF3F203FB1212ADF8062010
:1009C0004FF00405044601AB1A7822706D1E5B1CC3
:1009D000641C002DF8D102B07047FFFF81B00249BE
:1009E0000248016001B070474019010090000020EA
:1009F00081B0FEE701B0704781B0CDF800E0464A13
:100A0000464B474C47494BF68030814206D9464811
:100A1000006840F002014448016011E045F6C05012
:100A2000814206D94048006840F001013E4801601B
:100A300006E03D4801686FF0070001403A48016058
:100A4000FFF792FE3948036039480460394802EAEA
:100A500000013948016002F0010040B119463648F2
:100A6000006800F00200002800D1F8E700E0194615
:100A700002F4803040B10B462F48006800F400308B
:100A8000002800D1F8E700E00B4602F0805068B182
:100A90002948006840F080512748016026480068D6
:100AA00000F00050002800D1F8E7FFE702F0806076
:100AB00078B12148006840F080611F48016011460C
:100AC0001A461D48006800F00060002800D1F8E7D1
:100AD00001E011461A4601F0807070B116480068B6
:100AE00040F080711448016011461348006800F01E
:100AF000007000B9F9E70A46FFE70C48006800F00B
:100B00000C01900000F00C00814200D0F5E7DDF808
:100B100000E001B0704700BF8100010502041D0024
:100B20004406010040190100002002400410024068
:100B30002C100240FFFF0F000010024082B0FFF7B0
:100B40005BFF00F085F9FFF749FF00F041F90C2049
:100B500000B2FFF73FFE674908804FF6F47000B21D
:100B6000FFF738FE6349088047F6FF7000B2FFF7D1
:100B700031FE6049088048F2010000B2FFF72AFE0A
:100B80005C4908805C48FFF72DFE5C4908605C48C2
:100B9000FFF728FE594908605A48FFF723FE5749D6
:100BA00008605948FFF71EFE544908605748FFF790
:100BB00019FE524908605648FFF746FE4D49088025
:100BC0005448FFF741FE4B4908805348FFF73CFE6D
:100BD000484908805148FFF737FE46490880504889
:100BE000FFF732FE434908804E48FFF79FFE4E490B
:100BF00008604E48FFF79AFE4B4908604C48FFF7E3
:100C000095FE494908604B48FFF790FE4649086049
:100C10004948FFF78BFE444908604848FFF786FEC5
:100C2000414908604648FFF781FE3F49086064215A
:100C300009B240F2D24000B20DF1000CFFF7B2FE53
:100C40004FF004033F4A00A9087810705B1E491C4E
:100C5000521C002BF8D140F2E8313B480DF1000C5A
:100C6000FFF730FE4FF00803384A00A908781070EB
:100C70005B1E491C521C002BF8D140F2E83134486D
:100C80000DF1000CFFF738FE4FF00803314A00A9C0
:100C9000087810705B1E491C521C002BF8D12E489E
:100CA000FFF7CCFC204908606FF00040FFF7C6FC5E
:100CB0001D49086043217B20FFF7C8FC0D490880CF
:100CC000432143F22D00FFF7B1FC0A490880234875
:100CD000FFF7C4FC074908802148FFF7BFFC05491E
:100CE00008800920FFF710FDFFF71CFD014908806F
:100CF000FAE7FEE76C0000200000002070000020F2
:100D0000030000200900002011000020170000202F
:100D10001E000020200000202300002028000020CA
:100D20002E00002035000020740000203700002035
:100D30003A0000203F000020450000204C00002029
:100D40005800002078000020C01DFEFF7C0000201D
:100D500040E20100840000200100008064000020C7
:100D600068000020302E002D312E32330032332E19
:100D7000343565360033452B3130002E303945335C
:100D8000340031002D310031323232003332303014
:100D900030002D33323536300031002D3100313204
:100DA0003232003332303030002D333235363000BD
:100DB0002D32313437343833363437002032313441
:100DC00037343833363437002D314600314646004B
:100DD00000B5DFF814B0DFF814A0DFF814C0FFF797
:100DE0000BFD00BD704700BF000000206C0000201C
:100DF000640D0000FFFFFFFFFFFFFFFFFFFFFFFF8E
:100E0000FFFFFFFFFFFFFFFFFFFFFFFFFFFFFFFFF2
:100E1000FFFFFFFFFFFFFFFFFFFFFFFFFFFFFFFFE2
:100E2000FFFFFFFFFFFFFFFFFFFFFFFFFFFFFFFFD2
:100E3000FFFFFFFFFFFFFFFFFFFFFFFFFFFFFFFFC2
:100E4000FFFFFFFFFFFFFFFFFFFFFFFFFFFFFFFFB2
:100E500000B5DFF810B0DFF810A0FFF7D7FC00BD39
:100E6000704700BF0000002094000020FFFFFFFF3C
:00000001FF
